:1000000019C028C027C026C025C024C023C022C0D4
:1000100021C020C01FC01EC01DC01CC01BC01AC0F4
:1000200029C018C017C016C015C014C013C012C014
:1000300011C010C011241FBECFEFD2E0DEBFCDBF74
:1000400021E0A0E0B1E001C01D92A130B207E1F7CC
:1000500005D023C0D5CF259A2D9808958FEF85B967
:10006000FADF20E291E085B1822785B988B189273E
:1000700088B9F9CF1F920F920FB60F9211248F9368
:10008000F894809100018F5F8093000178948F91A4
:0E0090000F900FBE0F901F901895F894FFCFA1
:00000001FF
